:100000000C943C180C946D180C946D180C946D188D
:100010000C946D180C946D180C946D180C946D184C
:100020000C946D180C946D180C946D180C946D183C
:100030000C946D180C9451D90C946D180C946D1887
:100040000C946D180C946B220C946D180C946D1814
:100050000C946D180C946D180C9472200C94CBDCDD
:100060000C946D180C94948E0C94418F0C946D1814
:100070000C946D180C946D180C946D180C946D18EC
:100080000C94DC2F0C946D180C946D180C946D1856
:100090000C946D180C946D180C946D180C946D18CC
:1000A0000C946D180C946D180C94AE2F0C946D1864
:1000B0000C946D180C946D180C946D180C94802F82
:1000C0000C946D180C946D180C946D180C946D189C
:1000D0000C946D180C946D180C946AB60C942BB695
:1000E0000C946D18084AD73B3BCE016E84BCBFFD13
:1000F000C12F3D6C74319ABD56833DDA3D00C77FF8
:1001000011BED9E4BB4C3E916BAAAABE0000008090
:100110003F05A84CCDB2D44EB93836A9020C50B91F
:10012000918688083CA6AAAA2ABE000000803F004B
:100130004E414E494E495459494E46CDCCCC3D0ACC
:10014000D7233C17B7D13877CC2B329595E6241FAF
:10015000B14F0A000020410000C84200401C462068
:10016000BCBE4CCA1B0E5AAEC59D74526573656EFB
:10017000643A20006F6B0020746F6F206C6F6E67A5
:1001800020657874727573696F6E2070726576651C
:100190006E7465640A0020636F6C64206578747205
:1001A0007573696F6E2070726576656E7465640A2A
:1001B00000627573793A2070617573656420666FAB
:1001C0007220696E7075740A00627573793A2070D6
:1001D000617573656420666F7220757365720A00BD
:1001E000627573793A2070726F63657373696E67B5
:1001F0000A004A3135004B494C4C206361757365E8
:1002000064206279204B494C4C20627574746F6E87
:100210002F70696E0A004B494C4C20636175736501
:100220006420627920746F6F206D75636820696E39
:100230006163746976652074696D65202D2063752E
:100240007272656E7420636F6D6D616E643A20002A
:100250000000A0C000000000000000000000C84234
:100260000000C8420000A041000000005761726E0B
:10027000696E673A20486F6D696E672042756D70D0
:100280002044697669736F72203C20310A000202B3
:10029000040000A0400000A0400000004000005CFE
:1002A000430000614300004D43FFFFFF486F74654A
:1002B0006E6420746F6F20636F6C640A007C3C3E38
:1002C0005E2B3D3F2F5B5D3B2C2A225C004572720A
:1002D0006F722077726974696E6720746F2045456C
:1002E00050524F4D210A00454550524F4D206461F8
:1002F000746173697A65206572726F722E0A0029C3
:100300000A002062797465733B2063726320005396
:10031000657474696E67732053746F726564202806
:1003200000290A002062797465733B2063726320A0
:10033000002073746F7265642073657474696E67EE
:1003400073207265747269657665642028002028C0
:1003500063616C63756C6174656429210A002021F6
:100360003D2000454550524F4D20435243206D697A
:10037000736D61746368202D202873746F726564D7
:100380002920002053697A653A2000496E64657817
:100390003A2000204D61726C696E3D563535290A50
:1003A0000028454550524F4D3D00454550524F4D58
:1003B0002076657273696F6E206D69736D61746309
:1003C00068200048617264636F64656420446566F8
:1003D00061756C742053657474696E6773204C6F1B
:1003E000616465640A00B80B0000D00700003C009F
:1003F0000000102700000000FA430000FA4300004C
:100400002041000070420000A0420000A042000015
:10041000C843142EC9433A0A0020286D6D290020D4
:10042000204D36303320002055004C0046696C6169
:100430006D656E74206C6F61642F756E6C6F616496
:10044000206C656E677468733A0A0020204D39305D
:1004500030204B004C696E65617220416476616E9C
:1004600063653A0A0020204D383531205A005A2D54
:1004700050726F6265204F66667365740020440099
:1004800020490020204D33303420500020440020EB
:10049000490020204D333031205000504944207312
:1004A000657474696E67733A0A00205A0020204D03
:1004B00036363600456E6473746F702061646A75F9
:1004C00073746D656E743A0A00205A00204A002049
:1004D000204732392057204900205A0020204D342F
:1004E00032302053004175746F20426564204C65A2
:1004F00076656C696E673A0A00205A002059002020
:10050000204D323036205800486F6D65206F66668A
:100510007365743A0A00204500205A0020590020D3
:10052000580020540020530020204D3230352051F7
:100530000020453C6D61785F655F6A65726B3E00C7
:1005400020583C6D61785F785F6A65726B3E205918
:100550003C6D61785F795F6A65726B3E205A3C6DD5
:1005600061785F7A5F6A65726B3E00416476616EA6
:100570006365643A20513C6D696E5F7365676D65B4
:100580006E745F74696D655F75733E20533C6D6971
:100590006E5F66656564726174653E20543C6D698A
:1005A0006E5F74726176656C5F66656564726174B6
:1005B000653E0020540020520020204D323034206F
:1005C0005000416363656C65726174696F6E2028C9
:1005D000756E6974732F7332293A20503C707269BA
:1005E0006E745F616363656C3E20523C7265747229
:1005F0006163745F616363656C3E20543C74726137
:1006000076656C5F616363656C3E0A00204500207F
:100610005A0020590020204D3230312058004D61C1
:1006200078696D756D20416363656C65726174698D
:100630006F6E2028756E6974732F7332293A0A0021
:10064000204500205A0020590020204D3230332010
:1006500058004D6178696D756D20666565647261DD
:100660007465732028756E6974732F73293A0A00B4
:10067000204500205A0020590020204D39322058B2
:100680000053746570732070657220756E69743ADA
:100690000A0020204D3230302044300A0020204D06
:1006A0003230302044002044697361626C65640A12
:1006B0000046696C616D656E742073657474696E53
:1006C00067733A002020473231202020203B00541D
:1006D0005249474745524544006F70656E003A20C5
:1006E000007A5F70726F6265007A325F6D696E00CA
:1006F0007A5F6D696E00795F6D696E00785F6D6914
:100700006E005265706F7274696E6720656E6473F7
:10071000746F70207374617475730A0000000001B7
:100720000000000100008000555555000000400009
:1007300033333300AAAA2A00499224000000200083
:10074000C7711C0099991900D1451700555515001E
:100750003BB11300244912001111110000001000D8
:100760000F0F0F00E3380E0043790D00CCCC0C00C6
:10077000C3300C00E8A20B0064210B00AAAA0A00F7
:10078000703D0A009DD80900427B090092240900AF
:10079000DCD3080088880800104208000000080028
:1007A000F0C107008787070075500700711C07001C
:1007B0003EEB0600A1BC06006990060066660600D6
:1007C000703E06006118060017F4050074D105009C
:1007D0005BB00500B290050062720500555505003A
:1007E00078390500B81E0500050505004EEC04002B
:1007F00087D40400A1BD040090A70400499204001E
:10080000C17D0400EE690400C7560400444404009E
:100810005C320400082104004110040000000400C0
:100820003FF00300F8E0030026D20300C3C3030037
:10083000CCB503003AA803000A9B0300388E0300DE
:10084000C08103009F750300D0690300505E030060
:100850001D53030034480300913D0300333303006C
:1008600016290300381F030097150300300C0300FE
:10087000030303000BFA020049F10200BAE8020088
:100880005CE002002DD802002DD0020059C8020001
:10089000B0C0020031B90200DAB10200AAAA020017
:1008A000A0A30200BC9C0200FA9502005C8F02002B
:1008B000DF88020082820200457C02002776020067
:1008C00027700200436A02007C640200D05E0200CE
:1008D0003F590200C853020020746F6F206C6F6E86
:1008E0006720657874727573696F6E2070726576B3
:1008F000656E7465640A0020636F6C6420657874AB
:10090000727573696F6E2070726576656E7465645A
:100910000A00FFFDFCFAF8F6F4F2F0EEECEAE9E783
:10092000E5E3E1E0DEDCDAD9D7D5D4D2D0CFCDCB48
:10093000CAC8C7C5C3C2C0BFBDBCBAB9B7B6B4B3D5
:10094000B2B0AFADACAAA9A8A6A5A4A2A1A09E9D35
:100950009C9A99989795949392908F8E8D8B8A8973
:1009600088878684838281807F7E7D7B7A79787791
:10097000767574737271706F6E6D6C6B6A6968678F
:10098000666564636261605F5E5D5C5B5A5958587E
:100990005756555453525150504F4E4D4C4B4A4A56
:1009A0004948474646454443424241403F3E3E3D1A
:1009B0003C3B3B3A393838373635353433323231CF
:1009C00030302F2E2E2D2C2B2B2A29292827272675
:1009D000252524232322212120201F1E1E1D1C1C0F
:1009E0001B1B1A191918181716161515141313129C
:1009F000121111100F0F0E0E0D0D0C0C0B0A0A091F
:100A00000908080707060605050404030302020196
:100A1000000024F4D43050C38E20C2A24017828B31
:100A20007011127A910D816CD90AA861E108C7583A
:100A30006607615143061E4B5D05C145A7041A4177
:100A40001104093D9803713931034036DB026533E7
:100A50009102D4305402802E1D02632CEE01752ABF
:100A6000C501B028A001102781018F2564012B2426
:100A70004B01E0223401AC211F018D200D01801FAC
:100A8000FC00841EED00971DDF00B81CD200E61BA1
:100A9000C600201BBC00641AB200B219A8000A19D3
:100AA000A0006A189900D117910040178B00B51665
:100AB000840031167E00B31579003A157300C7140F
:100AC0006F0058146A00EE13660088136300251344
:100AD0005E00C7125B006C12570015125400C11162
:100AE000510070114F0021114B00D61049008D109C
:100AF00047004610440002104200C00F4000800F23
:100B00003E00420F3C00060F3B00CB0E3800930E18
:100B100037005C0E3500270E3400F30D3200C10D96
:100B20003100900D3000600D2E00320D2D00050DAE
:100B30002C00D90C2B00AE0C2900850C29005C0C74
:100B40002700350C27000E0C2600E80B2400C40BF0
:100B50002400A00B23007D0B23005A0B2100390B2E
:100B60002100180B2000F80A1F00D90A1E00BB0A3A
:100B70001E009D0A1D00800A1D00630A1C00470A12
:100B80001B002C0A1B00110A1A00F7091A00DD09C4
:100B90001900C4091900AB091900920917007B0953
:100BA0001800630917004C091600360916002009C1
:100BB00016000A091500F5081500E0081400CC0815
:100BC0001400B8081400A4081400900813007D084D
:100BD00012006B081300580812004608120034086F
:100BE0001100230811001208110001081100F0077C
:100BF0001000E0071000D0071000C0071000B00779
:100C00000F00A107100091070E0083070F00740763
:100C10000F0065070E0057070E0049070E003B073F
:100C20000D002E070E0020070D0013070D0006070C
:100C30000D00F9060C00ED060D00E0060C00D406D0
:100C40000C00C8060C00BC060C00B0060C00A40684
:100C50000B0099060C008D060B0082060B00770630
:100C60000B006C060B0061060A0057060B004C06D1
:100C70000A0042060A0038060A002E060A00240668
:100C80000A001A060A001006090007060A00FD05F8
:100C90000900F4050900EB050900E2050900D90582
:100CA0000900D0050900C7050900BE050900B50502
:100CB0000800AD050800A50509009C05080094057D
:100CC00008008C050800840508007C0508007405F0
:100CD00008006C050700650508005D05070056055E
:100CE00008004E05070047050700400508003805C5
:100CF0000700310507002A050700230507001C052A
:100D00000600160507000F05070008050600020586
:100D10000700FB040600F5040700EE040600E804E3
:100D20000600E2040700DB040600D5040600CF0439
:100D30000600C9040600C3040600BD040600B7048B
:100D40000600B1040500AC040600A6040600A004D9
:100D500005009B04060095040500900406008A0423
:100D6000050085040500800406007A04050075046A
:100D70000500700405006B040500660405006104AD
:100D800005005C04050057040500520405004D04ED
:100D9000050048040500430405003E0404003A042D
:100DA000050035040500300404002C040500270468
:100DB0000400230405001E0404001A0404001604A1
:100DC0000500110404000D040400090405000404D6
:100DD000040000040400FC030400F8030400F4030E
:100DE0000400F0030400EC030400E8030400E4033F
:100DF0000400E0030400DC030400D8030400D4036F
:100E00000400D0030400CC030400C8030300C5039E
:100E1000030024F404D9201BC40C5C0E9804C409FC
:100E20005F0265077101F405F900FB04B300480493
:100E30008700C10369005803550003034500BE0243
:100E40003A008402310053022A00290225000402DC
:100E50002000E4011C00C8011900AF01170098012F
:100E60001400840113007101100061011000510190
:100E70000E0043010D0036010B002B010B00200179
:100E80000B00150109000C01090003010800FB001B
:100E90000800F3000800EB000700E4000600DE0095
:100EA0000600D8000600D2000600CC000500C700EE
:100EB0000500C2000500BD000400B9000400B50033
:100EC0000400B1000400AD000400A9000400A50066
:100ED0000300A20003009F0004009B000300980091
:100EE00003009500020093000300900003008D00B2
:100EF00002008B00030088000200860002008400CC
:100F00000300810002007F0002007D0002007B00E0
:100F100002007900020077000100760002007400F0
:100F2000020072000100710002006F0002006D00FB
:100F300001006C0002006A00010069000200670005
:100F4000010066000100650001006400020062000B
:100F5000010061000100600001005F0002005D000F
:100F600001005C0001005B0001005A000100590013
:100F70000100580001005700010056000100550013
:100F80000100540001005300000053000100520012
:100F9000010051000100500001004F0001004E000F
:100FA00000004E0001004D0001004C0001004B000C
:100FB00000004B0001004A00010049000100480008
:100FC0000000480001004700010046000000460004
:100FD00001004500000045000100440001004300FD
:100FE00000004300010042000000420001004100F7
:100FF000000041000100400001003F0000003F00F0
:1010000001003E0000003E0001003D0000003D00E8
:1010100001003C0000003C0000003C0001003B00DF
:1010200000003B0001003A0000003A0001003900D6
:1010300000003900010038000000380000003800CE
:1010400001003700000037000100360000003600C4
:1010500000003600010035000000350000003500BA
:1010600001003400000034000000340001003300AF
:1010700000003300000033000100320000003200A5
:10108000000032000100310000003100000031009A
:1010900001003000000030000000300001002F008F
:1010A00000002F0000002F0000002F0001002E0084
:1010B00000002E0000002E0001002D0000002D0079
:1010C00000002D0000002D0001002C0000002C006D
:1010D00000002C0000002C0001002B0000002B0061
:1010E00000002B0000002B0001002A0000002A0055
:1010F00000002A0000002A00010029000000290049
:10110000000029000000290000002900010028003B
:10111000000028000000280000002800000028002F
:101120000100270000002700000027000000270022
:101130000000270001002600000026000000260015
:101140000000260000002600010025000000250008
:1011500000002500000025000000250000002500FB
:1011600001002400000024000000240000002400EE
:1011700000002400010023000000230000002300E1
:1011800000002300000023000000230000002300D3
:1011900001002200000022000000220000002200C6
:1011A00000002200000022000100210000002100B8
:1011B00000002100000021000000210000002100AB
:1011C000000021000100200000002000000020009D
:1011D000000020000000200000002000000020008F
:1011E0000000200001001F0000001F0000001F0081
:1011F00000001F0000001F0000001F0000001F0073
:1012000001001E0000001E0000001E0000001E0065
:101210000000232C0000B8220000561800003A0FEE
:101220000000B8080000B1040000710200003E0197
:1012300000002CFFFFFFFFFF0001010101016265BB
:10124000640A002C2073797374656D2073746F7059
:1012500070656421204865617465725F49443A2075
:10126000004265642068656174696E672066616923
:101270006C65640048656174696E67206661696CBD
:1012800065640045312048656174696E6720666158
:10129000696C65640048656174696E6720666169A0
:1012A0006C65640070012C0190012701B0012201DE
:1012B000C0011D01F00118011002130130020E01DE
:1012C0006002090190020401C002FF000003FA005D
:1012D0004003F5008003F000D003EB002004E6009B
:1012E0007004E100E004DC004005D700C005D20036
:1012F0004006CD00D006C8008007C3003008BE00FD
:10130000F008B900C009B400B00AAF00B00BAA00E1
:10131000D00CA500000EA000500F9B00C01096003E
:101320005012910000148C00C0158700B017820085
:10133000B0197D00D01B7800001E730040206E00A5
:1013400090226900F024640040275F0090295A0031
:10135000E02B5500102E500020304B00103246007C
:10136000E033410090353C001037370070383200D0
:10137000A0392D00B03A2800A03B2300603C1E009D
:10138000103D1900903D1400103E0F00703E0A0001
:10139000C03E0500003F0000403FFBFF803FF6FFDE
:1013A000C03FF1FF453120544845524D414C205239
:1013B000554E415741590042454420544845524DED
:1013C000414C2052554E4157415900546865726D49
:1013D000616C2052756E61776179004531204572EC
:1013E000723A204D415854454D50004572723A2092
:1013F0004D415854454D5020424544004D415854AC
:10140000454D5020747269676765726564004531A7
:10141000204572723A204D494E54454D5000457258
:10142000723A204D494E54454D5020424544004D9E
:10143000494E54454D502074726967676572656402
:10144000004D383420582059205A204500202F00C4
:10145000434F4D4D554E49434154494F4E00445220
:101460005952554E004552524F525300494E464F25
:10147000004543484F00696E206D6F76655F746F5D
:10148000282920666565645F76616C756520666FE6
:10149000722058593A002C2065793D0029202D3EB4
:1014A000202865783D002C2073793D0020436F6E25
:1014B0006E656374696E67207769746820766572FB
:1014C000746963616C206C696E65202873783D00D7
:1014D0002C2065793D0029202D3E202865783D008F
:1014E0002C2073793D0020436F6E6E656374696EC6
:1014F00067207769746820686F72697A6F6E7461AB
:101500006C206C696E65202873783D003F537065D0
:1015100063696669656420582C5920636F6F726433
:10152000696E617465206F7574206F6620626F75D7
:101530006E64732E0A003F2852296570656174201D
:1015400076616C7565206E6F7420706C617573695F
:10155000626C653B206D7573742062652061742038
:101560006C6561737420312E0A003F285229657022
:10157000656174206D757374206265207370656396
:101580006966696564207768656E206E6F74207582
:1015900073696E6720616E204C43442E0A003F53EE
:1015A0007065636966696564206E6F7A7A6C652020
:1015B00074656D7065726174757265206E6F7420EC
:1015C000706C61757369626C652E0A003F537065BB
:1015D0006369666965642066696C616D656E742017
:1015E00073697A65206E6F7420706C6175736962BF
:1015F0006C652E0A003F53706563696669656420F7
:101600007072696D65206C656E677468206E6F74AA
:1016100020706C61757369626C652E0A003F5072B0
:10162000696D65206C656E677468206D75737420D4
:1016300062652073706563696669656420776865B3
:101640006E206E6F74207573696E6720616E204C1A
:1016500043442E0A003F53706563696669656420E0
:101660006E6F7A7A6C652073697A65206E6F74206C
:10167000706C61757369626C652E0A003F496E7605
:10168000616C69642052657472616374696F6E2F56
:10169000556E72657472616374696F6E20726174E5
:1016A000696F2E204D7573742062652077697468A8
:1016B000696E20356D6D2E0A0020556E726574724C
:1016C000616374696F6E20616D6F756E74206175F2
:1016D000746F6D61746963616C6C792073657420DB
:1016E000746F20003F556E72657472616374696F28
:1016F0006E206C656E677468206D7573742062650A
:10170000207370656369666965642E0A003F5370D3
:101710006563696669656420556E7265747261639C
:1017200074696F6E206C656E677468206E6F7420CC
:10173000706C61757369626C652E0A003F52657446
:1017400072616374696F6E206C656E677468206D7A
:10175000757374206265207370656369666965647A
:101760002E0A003F5370656369666965642052659F
:101770007472616374696F6E206C656E6774682043
:101780006E6F7420706C61757369626C652E0A00EF
:101790003F537065636966696564206C6179657241
:1017A00020686569676874206E6F7420706C61755D
:1017B0007369626C652E0A003F53706563696669E0
:1017C0006564206265642074656D7065726174750E
:1017D0007265206E6F7420706C61757369626C65E0
:1017E000202834302D31343043292E0A0047323638
:1017F00020636F6D6D616E642073746172746564D3
:101800002E2057616974696E6720666F7220686563
:10181000617465722873292E0A0025697300256991
:101820006D20256973002569682025696D2025696B
:101830007300256964202569682025696D20256964
:101840007300256979202569642025696820256948
:101850006D2025697300656E7175657565696E67C4
:101860002022005072696E7465722073746F7070FC
:1018700065642064756520746F206572726F727381
:101880002E2046697820746865206572726F722018
:10189000616E6420757365204D39393920746F206D
:1018A000726573746172742E202854656D70657250
:1018B00061747572652069732072657365742E207A
:1018C0005365742069742061667465722072657353
:1018D00074617274696E67290A004E6F20436865EF
:1018E000636B73756D2077697468206C696E652011
:1018F0006E756D6265722C204C617374204C696E3C
:10190000653A20004E6F20436865636B73756D20E8
:1019100077697468206C696E65206E756D6265729A
:101920002C204C617374204C696E653A200063680A
:1019300065636B73756D206D69736D617463682C7D
:10194000204C617374204C696E653A20004C696EBE
:1019500065204E756D626572206973206E6F74200C
:101960004C617374204C696E65204E756D626572B2
:101970002B312C204C617374204C696E653A200029
:101980004D313130004D3331005344207265616474
:10199000206572726F720A00446F6E652070726902
:1019A0006E74696E672066696C650A0020496E7600
:1019B000616C6964206578747275646572200000DA
:1019C00000A0C0000000000000000000005743001D
:1019D00000614300004D435072696E74657220735C
:1019E000746F707065642064756520746F20657213
:1019F000726F72732E204669782074686520657254
:101A0000726F7220616E6420757365204D393939AB
:101A100020746F20726573746172742E202854656F
:101A20006D7065726174757265206973207265737B
:101A300065742E2053657420697420616674657224
:101A40002072657374617274696E67290A00535459
:101A50004F502063616C6C656420626563617573CF
:101A600065206F6620424C546F7563682065727202
:101A70006F72202D2072657374617274207769749F
:101A800068204D3939390A0042696C696E656172A6
:101A9000204C6576656C696E6720477269643A0A06
:101AA00000202844525952554E29004732392041CE
:101AB00075746F20426564204C6576656C696E674D
:101AC000003F20284C2C522C462C4229206F757444
:101AD000206F6620626F756E64732E0A003F285671
:101AE000296572626F7365206C6576656C20697319
:101AF00020696D706C61757369626C652028302D8A
:101B000034292E0A00426164205A2076616C756582
:101B10000A004E6F2062696C696E6561722067729F
:101B200069640A0044656C6574696F6E206661695A
:101B30006C65642C2046696C653A200046696C65CA
:101B40002064656C657465643A0050726F746563F7
:101B50007465642050696E0A005374616E6461722A
:101B60006420446576696174696F6E3A2000205282
:101B7000616E67653A2000204D61783A2000204D63
:101B8000696E3A20004D65616E3A200046696E69C3
:101B900073686564210A002072616E67653A2000EF
:101BA000206D61783A2000206D696E3A2000207324
:101BB00069676D613A2000206D65616E3A20003AD8
:101BC000207A3A2000206F662000205A0020590019
:101BD000205800476F696E6720746F3A00436C6F3E
:101BE000636B776973650A00436F756E7465722D58
:101BF0000020446972656374696F6E3A200020208A
:101C000020616E676C653A20005374617274696E6E
:101C100067207261646975733A2000506F7369744C
:101C2000696F6E696E67207468652070726F626597
:101C30002E2E2E0A003F4E756D626572206F662053
:101C40006C65677320696E206D6F76656D656E7467
:101C5000206E6F7420706C61757369626C652028EA
:101C6000302D3135292E0A003F2028582C592920A3
:101C70006F7574206F6620626F756E64732E0A0034
:101C80003F53616D706C652073697A65206E6F7467
:101C900020706C61757369626C652028342D353055
:101CA000292E0A004D3438205A2D50726F6265205B
:101CB0005265706561746162696C697479205465FC
:101CC00073740A003F2856296572626F7365206C31
:101CD0006576656C20697320696D706C61757369D8
:101CE000626C652028302D34292E0A0046696C610B
:101CF0006D656E7420757365643A20005374617469
:101D0000733A20002C204C6F6E67657374206A6FE5
:101D1000623A2000546F74616C2074696D653A20DA
:101D20000053746174733A20002C204661696C651D
:101D3000643A20002C2046696E69736865643A2015
:101D4000005072696E74733A200053746174733A70
:101D500020004A3036004A3034004A3037002057DD
:101D60003A004A3038004A30390020573A00205AA9
:101D70003A0020593A0020436F756E7420583A009B
:101D800020453A00205A3A0020593A00583A003A81
:101D9000004361703A00205A00205900580020206A
:101DA0004D61783A2000205A002059005800202028
:101DB0004D696E3A20004F6E20004F666600536FEB
:101DC000667420656E6473746F70733A2000496E98
:101DD00076616C69642065787472756465720A0056
:101DE00020643A0020693A0020703A004B642000D9
:101DF00023646566696E652044454641554C545FD1
:101E0000004B69200023646566696E652044454681
:101E100041554C545F004B70200023646566696E29
:101E2000652044454641554C545F0050494420418B
:101E300075746F74756E652066696E697368656424
:101E4000212050757420746865206C617374204B78
:101E5000702C204B6920616E64204B6420636F6E90
:101E60007374616E74732066726F6D2062656C6F3F
:101E70007720696E746F20436F6E66696775726153
:101E800074696F6E2E680A00504944204175746F62
:101E900074756E65206661696C6564212074696D76
:101EA000656F75740A00453120544845524D414CC8
:101EB0002052554E4157415900424544205448450F
:101EC000524D414C2052554E41574159005468657E
:101ED000726D616C2052756E6177617900453120B9
:101EE00048656174696E67206661696C656400426B
:101EF00065642068656174696E67206661696C65F8
:101F0000640048656174696E67206661696C656428
:101F100000504944204175746F74756E6520666188
:101F2000696C6564212054656D70657261747572A9
:101F30006520746F6F20686967680A00204B643AF7
:101F40002000204B693A2000204B703A20000A20E4
:101F5000436C617373696320504944200A00205424
:101F6000753A2000204B753A2000206D61783A20A8
:101F700000206D696E3A200020643A2000206269DA
:101F800061733A2000504944204175746F74756E36
:101F9000652073746172740A00504944204175745D
:101FA0006F74756E65206661696C65642120546587
:101FB0006D706572617475726520746F6F206869E9
:101FC00067680A00504944204175746F74756E65E6
:101FD000206661696C6564212042616420657874C3
:101FE0007275646572206E756D6265720A004F6667
:101FF000660A004661646520486569676874200068
:10200000426564204C6576656C696E6720004661A8
:10201000696C656420746F20656E61626C65204236
:102020006564204C6576656C696E670A00496E735D
:102030006572742066696C616D656E7420616E6492
:102040002073656E64204D3130380A0053656E642C
:10205000204D31303820746F2068656174206E6FB8
:102060007A7A6C650A00496E736572742066696CD1
:10207000616D656E7420616E64207072657373208B
:10208000627574746F6E20286F72204D313038295C
:102090000A004D38383820636F6F6C646F776E209C
:1020A000726F7574696E6520646F6E650A004D38D5
:1020B0003400546172676574206E6F7420726561BC
:1020C000636865642C2071756575656420616E2098
:1020D0006172630A00556C7472616261736520639A
:1020E0006F6F6C646F776E20737461727465640ACD
:1020F0000047322F47332062616420706172616D46
:1021000065746572730A00205A3A200020593A20FB
:102110000042656420583A20004D65736820706F56
:10212000696E742063616E6E6F74206265207265E3
:10213000736F6C7665640A00456E642066696C6531
:10214000206C6973740A00426567696E2066696C69
:1021500065206C6973740A004D31323500286E6F4A
:102160002066696C65290043757272656E7420661D
:10217000696C653A20005344207072696E74696E10
:1021800067206279746520004E6F7420534420707C
:1021900072696E74696E670A005072696E74207499
:1021A000696D653A20006F6E2E0A006F66662E0A12
:1021B0000047323620446562756720006F6666000E
:1021C00071146C1465145E14501444454255473A1A
:1021D000004D3131332053006F6B00486F74656ED2
:1021E0006420746F6F20636F6C640A002C20002CD5
:1021F0002000544845524D414C5F50524F54454386
:1022000054494F4E004155544F5245504F52545F20
:1022100053445F53544154555300454D455247452F
:102220004E43595F50415253455200434153455F1D
:102230004C494748545F4252494748544E455353CE
:1022400000544F47474C455F4C494748545300534F
:102250004F4654574152455F504F574552004255E3
:10226000494C445F50455243454E54004C455645F9
:102270004C494E475F44415441005A5F50524F42CF
:1022800045004155544F4C4556454C005052494E1F
:10229000545F4A4F420050524F47524553530041FA
:1022A00055544F5245504F52545F54454D5000566F
:1022B0004F4C554D455452494300454550524F4DA2
:1022C0000053455249414C5F584F4E5F584F464668
:1022D000004649524D574152455F4E414D453A4D9A
:1022E00061726C696E20312E312E39202847697455
:1022F0006875622C206C75636162617273616E74C3
:102300006929204D41524C494E2D4149334D5F566C
:10231000455253494F4E3A76312E342E3620534F84
:10232000555243455F434F44455F55524C3A68749C
:102330007470733A2F2F6769746875622E636F6DBE
:102340002F6C75636162617273616E74692F4D6188
:10235000726C696E2D4149334D2050524F544F439A
:102360004F4C5F56455253494F4E3A312E30204D17
:10237000414348494E455F545950453A416E79634F
:1023800075626963206933204D6567612045585443
:1023900052554445525F434F554E543A312055559E
:1023A00049443A63656465326132662D3431613285
:1023B0002D343734382D396231322D63353563365B
:1023C000326633363766660A002F2F20002054000D
:1023D000205200416363656C65726174696F6E3A87
:1023E0002050005741524E494E4721204C6F7720D4
:1023F0005A204A65726B206D6179206C656164209A
:10240000746F20756E77616E74656420706175738A
:1024100065732E0A00546F6F206661722066726FBA
:102420006D207265666572656E636520706F696E9A
:10243000740A0020466C6F773A2000000136372678
:10244000032BFFFFFF3C3D382AFFFFFFFF2E303EEE
:1024500012FFFFFFFFFF02FF0809FF2C071A1C18DD
:10246000FFFFFF08440A2C4324221E206F757420AE
:102470006F662072616E67650A00536572766F2021
:10248000003A200020536572766F200043290A002D
:1024900061626C656420286D696E2074656D7020C2
:1024A00000436F6C64206578747275646573206195
:1024B0007265200020643A0020693A0020703A00DA
:1024C0004E6F2063617365206C696768740A004D04
:1024D00065736820706F696E742063616E6E6F74CF
:1024E000206265207265736F6C7665640A004D34F6
:1024F000323120696E636F7272656374207061722D
:10250000616D657465722075736167650A00454584
:1025100050524F4D204F4B0A00205A004475616CB9
:1025200020456E6473746F702041646A7573746DB6
:10253000656E7420286D6D293A20003F5A206F7512
:1025400074206F662072616E676520282D323020FE
:10255000746F203230290A003A200050726F626591
:10256000205A204F6666736574003F4B2076616C7D
:102570007565206F7574206F662072616E676520C7
:1025800028302D3130292E0A00416476616E636552
:10259000204B3D00416374697665204578747275FF
:1025A0006465723A2000496E76616C6964206578D2
:1025B0007472756465720A001000C90210012C0162
:1025C0004001220170011801B0010E01F001040167
:1025D0005002FA00B002F0003003E600D003DC0045
:1025E0009004D2007005C800A006BE000008B40028
:1025F000B009AA00D00BA000600E960060118C00FC
:102600000015820020197800C01D6E00A022640011
:10261000B0275A00902C500000314600E0343C00B6
:1026200010383200903A2800603C1E00A03D140093
:10263000803E0A00203F00002042403A0020403AFD
:102640000000002100240027002A002D0030003364
:102650000001010000040107010A01000022002519
:102660000028002B002E003100340002010000057C
:102670000108010B01000020002300260029002C86
:10268000002F0032000001000003010601090105CE
:10269000050505070508080808020202020A0A08DB
:1026A0000804040404010101010101010103030301
:1026B0000303030303040707070C0C0C0C0C0C0C9E
:1026C0000C0202020206060606060606060B0B0BA5
:1026D0000B0B0B0B0B0102102020080810204010E0
:1026E00020408002010201080402010102040810D6
:1026F00020408080402010080402018004020180F4
:10270000402010080402010804020101020408101C
:10271000204080010204081020408000000A0B02C3
:10272000090C0D0E08070304010000000000000062
:102730000000000000000000000000000000000099
:102740000000000000000012111000000000000056
:102750000000000000000000000000000000000079
:1027600000024A3135004A3132004A313700202018
:10277000506C616E6E657242756666657242797400
:1027800065733A20002046726565204D656D6F7255
:10279000793A2000436F6D70696C65643A20446536
:1027A0006320323020323031390A00207C204175DC
:1027B00074686F723A20286C75636162617273612C
:1027C0006E7469290A00323031392D31322D3230A0
:1027D00000204C61737420557064617465643A2004
:1027E0000076312E342E360A004D61726C696E2DE2
:1027F0004149334D00312E312E390A004D61726C42
:10280000696E0020536F667477617265205265733C
:1028100065740A00205761746368646F67205265AD
:102820007365740A002042726F776E206F75742092
:1028300052657365740A002045787465726E616C28
:102840002052657365740A00506F77657255700A7F
:102850000073746172740A004D3234004D323320BB
:102860002573006175746F25692E67006572726F3C
:10287000722077726974696E6720746F2066696C64
:10288000650A0020503A00205A3A0020593A0020A8
:10289000583A00656E6473746F7073206869743A97
:1028A0002000446F6E6520736176696E67206669EB
:1028B0006C652E0A004D323900556E6B6E6F776E67
:1028C00020636F6D6D616E643A202200496E7365FE
:1028D00072742066696C616D656E7420616E64202F
:1028E000707265737320627574746F6E20286F72D6
:1028F000204D313038290A0050726F62696E6720AE
:102900006661696C65640A00205A3A200020593AD1
:10291000200042656420583A200043616E6E6F7457
:1029200020656E746572207375626469723A200066
:102930004D363030005370656369616C204D656EB3
:10294000753A2046696C616D656E744368616E67A7
:102950006520526573756D650A0053706563696122
:102960006C204D656E753A2046696C616D656E74BC
:102970004368616E67652050617573650A00473270
:10298000380A473239005370656369616C204D65C0
:102990006E753A204175746F20426564204C6576EF
:1029A000656C696E670A004D313430205336300053
:1029B0005370656369616C204D656E753A20507285
:1029C0006568656174204265640A004D35303200E7
:1029D0005370656369616C204D656E753A204C6F6C
:1029E00061642046572044656661756C74730A0003
:1029F0004D353030005370656369616C204D656EF4
:102A0000753A205361766520454550524F4D0A0076
:102A10004D33303320452D3120533630204336207E
:102A20005531005370656369616C204D656E753A70
:102A3000204175746F2054756E6520486F7462650F
:102A400064205069640A004D3130362053323034EE
:102A50000A4D33303320453020533231302043315A
:102A600035205531005370656369616C204D656E8A
:102A7000753A204175746F2054756E6520486F74E7
:102A8000656E64205049440A004D313038004D31A4
:102A90003038004D3234004D3234003C53706563A1
:102AA00069616C5F4D656E753E003C53706563698E
:102AB000616C5F4D656E753E002F002F002F002F5B
:102AC0002E2E0A002F2E2E002F2E2E003C53706526
:102AD0006369616C5F4D656E753E0A003C537065BD
:102AE0006369616C204D656E753E003C5370656393
:102AF00069616C204D656E753E003C46696C616D88
:102B0000656E744368616E676520526573756D65A7
:102B10003E003C46696C616D656E744368616E672A
:102B20006520526573756D653E003C46696C616D4C
:102B3000656E744368616E67652050617573653EAC
:102B4000003C46696C616D656E744368616E6765D3
:102B50002050617573653E003C4C6F6164204657A0
:102B60002044656661756C74733E003C4C6F616413
:102B70002046572044656661756C74733E003C4185
:102B800075746F2054756E6520486F74626564209B
:102B90005049443E003C4175746F2054756E652069
:102BA000486F74626564205049443E003C4175742E
:102BB0006F2054756E6520486F74656E64205049AF
:102BC000443E003C4175746F2054756E6520486F1B
:102BD00074656E64205049443E003C457869743EFB
:102BE000003C457869743E003C536176652045455C
:102BF00050524F4D3E003C53617665204545505242
:102C00004F4D3E003C4175746F20426564204C6519
:102C100076656C696E673E003C4175746F20426555
:102C200064204C6576656C696E673E003C50726549
:102C300068656174206265643E003C507265686539
:102C40006174206265643E0056313136004A333388
:102C500020004D3530300A4D3432302053310A4790
:102C600031205A313020463234300A473120583032
:102C7000205930204636303030004D353030004D50
:102C8000383531205A0041395620004A3232004A44
:102C90003232004731205A3520463234300A47312B
:102CA0002058313930205932302046363030300A01
:102CB0004731205A302046323430004731205A35CF
:102CC00020463234300A47312058313930205931CA
:102CD00039302046363030300A4731205A302046CD
:102CE000323430004731205A3520463234300A47DA
:102CF000312058313930205932302046363030308A
:102D00000A4731205A302046323430004739310AE0
:102D10004731205A313020463234300A4739300AA0
:102D20004732380A4732390A473120583230205961
:102D300032302046363030300A4731205A30204673
:102D4000323430004A3032004A3132004731205AA2
:102D50003130004F4B004731205A31300047393075
:102D60000047312045256946353030004731204540
:102D70002D302E314625690047312045302E314611
:102D80002569004731205A256946256900473120C9
:102D90005A2D302E31462569004731205A302E31C8
:102DA0004625690047312059256946256900473184
:102DB00020592D302E314625690047312059302EBB
:102DC0003146256900473120582569462569004765
:102DD0003120582D302E314625690047312058309A
:102DE0002E314625690047393100473238004732D5
:102DF00038205A00473238205900473238205800CE
:102E00004132305620004731205A3130004A3034A8
:102E1000004A3231004A3230004A3136004A3034FA
:102E200000454E4400464E20004A303200393939C0
:102E30003A393939004D00480041375620004136B3
:102E400056202D2D2D004A30320041365620005A92
:102E50003A2000593A2000583A20004135560041A6
:102E60003456200041335620004132562000413173
:102E700056200041305620004D3237004D38340086
:102E80004739310A473120452D312046313830301D
:102E90000A473930004A3136004D313235204C3244
:102EA000004A3138004A3134004A3030004A30316B
:102EB000004A3130002066697273740A005A005962
:102EC000005800486F6D6520004A3233004D32359E
:102ED0000047393000473120452D33204631383006
:102EE00030004739310057726974696E6720746F1A
:102EF0002066696C653A20006F70656E20666169B6
:102F00006C65642C2046696C653A20006F70656EB4
:102F1000206661696C65642C2046696C653A200006
:102F200046696C652073656C65637465640A00208E
:102F300053697A653A200046696C65206F70656E4A
:102F400065643A20002066696C653A2000646F6908
:102F50006E67006672657368004E6F772000454E9D
:102F60004420535542524F5554494E450A002220A1
:102F7000706F73002220706172656E743A22005384
:102F80005542524F5554494E452043414C4C2074B4
:102F900061726765743A2200747279696E67207491
:102FA0006F2063616C6C207375622D67636F64655D
:102FB0002066696C6573207769746820746F6F2070
:102FC0006D616E79206C6576656C732E204D41586D
:102FD000206C6576656C2069733A006F70656E20B1
:102FE0006661696C65642C2046696C653A20004313
:102FF000616E6E6F74206F70656E207375626469A8
:103000007220004A3131005072696E746572206816
:10301000616C7465642E206B696C6C282920636177
:103020006C6C6564210A0053442063617264206FF4
:103030006B0A006F70656E526F6F74206661696C09
:1030400065640A00766F6C756D652E696E69742013
:103050006661696C65640A004572726F723A00536A
:103060004420696E6974206661696C0A0065636852
:103070006F3A0000A4F859F511241FBECFEFD1E23A
:10308000DEBFCDBF00E00CBF14E0A0E0B2E0E0E89E
:10309000F9E102E00BBF02C007900D92A031B10729
:1030A000D9F72CE1A0E1B4E001C01D92AF3CB2071A
:1030B000E1F718E1CBE3D8E100E006C02197010970
:1030C000802FFE010F94280CCA33D10780E0080737
:1030D000A9F70E94FBF90D94AF0C0C94000090919D
:1030E0006F00292F227091FF05C090916F009D7F86
:1030F00090936F0034E0839FC0011124FC01E852DB
:10310000FC4E40815181628173818153924FFC0159
:10311000408351836283738381E08093520622232C
:1031200029F080916F00826080936F000895BC0148
:103130002091CD0D3091CE0D4091CD0D5091CE0D01
:103140002417350731F481E02617370709F080E0AE
:1031500008959A01F1CFEF92FF920F931F93E0929F
:103160004A06F0924B0600934C0610934D0660936E
:103170004E0670934F06809350069FEFFF27621B09
:10318000730B840B30F4809570956195790B890BE6
:10319000992790933B0EA6E06A9F00922F0E512D27
:1031A000EE277A9F500DE11D8A9FE00D5093300E5F
:1031B000E093310EAFE06A9F0092330E512DEE275F
:1031C0007A9F500DE11D8A9FE00D5093340EE093DD
:1031D000350EAAE06A9F0092370E512DEE277A9F96
:1031E000500DE11D8A9FE00D5093380EE093390E8B
:1031F0001F910F91FF90EF90089580916616909126
:103200006716891B8F7019F490E080E00895909103
:103210006316992351F0833030F48FEF890F19F042
:1032200080936316F1CF109263168091671628E69B
:10323000829FC00111248550994FFC01208120FDFF
:10324000E3CF209167162F5F2F7020936416309183
:10325000671620916516321304C0209164162093DE
:10326000651608959F92AF92BF92CF92DF92EF9230
:10327000FF920F931F93CF93DF9300D01F921F9263
:10328000CDB7DEB7E2E1F9E00027BB27462F572F85
:10329000A82FAA2341F4A52F542FB85FAA2319F40D
:1032A000A52F5527B85FA03138F45295A295452F28
:1032B0004F70507FA42BBC5FA03428F4550FAA1F79
:1032C000550FAA1FBE5FA03818F4550FAA1FB3955B
:1032D000550FAA1FEA0FF01F449151E0AA27B850DA
:1032E00079F1C0F0B0FF02C0440F551FB1FF04C018
:1032F000440F551F440F551FB2FF06C0529542950B
:10330000142F1F70407F512BB3FF1AC0A52F542FCD
:10331000442716C0B195B0FF02C055954795B1FF3F
:1033200004C05595479555954795B2FF05C05295F0
:10333000407F4295452B5F70B3FF02C0452F552754
:10334000DD24CC24BB24B2E0649FD018C108B00AAD
:10335000B00B749FC018B108B00B849FB018B109AE
:10336000659FC018B108B00B759FB018B109859F53
:10337000B0196A9FB018B1097A9FB0194D9DA12C60
:1033800099243327992722275D9DA00C911C301F7B
:10339000901F201FAD9D900C311D901F201F4C9D34
:1033A000A00C911C301F901F201F5C9D900C311DA4
:1033B000901F201FAC9D300D911D201F4B9D900C28
:1033C000311D901F201F5B9D300D911D201FAB9D57
:1033D000900D211D4B9F300D911D201F5B9F900D67
:1033E000211DAB9F200DB1E0BB24CC24DD24639FC5
:1033F000D018C108B00AB00B739FC018B108B00B49
:10340000839FB018B109699FC018B108B00B799FAC
:10341000B018B109899FB019629FB018B109729FA5
:10342000B019D61AC70AB80A20F0B1E03B0F901FB6
:10343000201F1124792F632F90E0822F0F900F907F
:103440000F900F900F90DF91CF911F910F91FF90F0
:10345000EF90DF90CF90BF90AF909F900895CF9363
:10346000DF9390916F00292F227091FF05C09091FA
:103470006F009D7F90936F0094E0899FA0011124BD
:10348000FA01E852FC4E608171818281938122238E
:1034900029F020916F00226020936F00EA01CC5147
:1034A000D94F0F94CA04288139814A815B810F94D6
:1034B0002905DF91CF9108958F929F92AF92BF928D
:1034C000CF92DF92EF92FF92CF93DF93EC01809047
:1034D000D4139090D513A090D613B090D71320E0BA
:1034E00030E0A901C501B4010F94C404882309F494
:1034F00054C0C880D980EA80FB80A7019601C5012D
:10350000B4010F94C40418160CF04CC02091CB13D6
:103510003091CC134091CD135091CE13C701B60119
:103520000F94C404882331F1C092CB13D092CC13F2
:10353000E092CD13F092CE132091CF133091D0139F
:103540004091D1135091D213688179818A819B81F6
:103550000F9429059B01AC0160E070E080E89FE3D7
:103560000F942C0960931C0270931D0280931E021D
:1035700090931F0260911C0270911D0280911E02A7
:1035800090911F02DF91CF91FF90EF90DF90CF904D
:10359000BF90AF909F908F90089560E070E080E8BA
:1035A0009FE3F0CF60E070E0CB01ECCFCF93DF93EF
:1035B00080918E0F811105C080918F0F882309F4AF
:1035C0009AC080917D0D90917E0D65998AC0816031
:1035D00090937E0D80937D0D2091090180917D0D4A
:1035E00090917E0D27FD7FC0826090937E0D809329
:1035F0007D0D80917D0D90917E0D4B9976C08460FC
:1036000090937E0D80937D0D2091090180917D0D19
:1036100090917E0D26FD6BC0986090937E0D8093F7
:103620007D0D80917D0D90917E0D649962C0877FA4
:1036300090937E0D80937D0DC091C00DC0FF0FC093
:103640008091820D80FF0BC080917D0D80FF07C0AF
:103650008091A40F81608093A40F80E040DDC1FFC2
:103660000FC08091820D81FF0BC080917D0D81FF85
:1036700007C08091A40F82608093A40F81E02FDDAA
:10368000C2FF39C08091820D82FF35C0C0917D0D8F
:10369000D0917E0DCE0196958795969587958170F0
:1036A00092E0D3FF90E0892B69F09091A40F946091
:1036B0009093A40F90917F0D992311F0833011F412
:1036C00082E00DDD80918F0F8823A9F0C3FF13C026
:1036D0008091A40F88608093A40F82E0DF91CF9146
:1036E000FECC8E7F75CF8D7F80CF8B7F89CF977FEC
:1036F00094CF88609DCFDF91CF910895CF92DF92D4
:10370000EF92FF92CF93DF93EC01C0906205D090CF
:103710006305E0906405F0906505A7019601688156
:1037200079818A819B810F94C40487FF04C0C88279
:10373000D982EA82FB82C0906605D0906705E0904E
:103740006805F0906905A70196016C817D818E81E5
:103750009F810F94C40487FF04C0CC82DD82EE8277
:10376000FF82C0901002D0901102E0901202F090FF
:103770001302A7019601688179818A819B810F9448
:10378000530B181624F4C882D982EA82FB82C090B7
:103790001402D0901502E0901602F0901702A701D3
:1037A00096016C817D818E819F810F94530B181639
:1037B00024F4CC82DD82EE82FF82C0906A05D09034
:1037C0006B05E0906C05F0906D05A701960168858A
:1037D00079858A859B850F94C40487FF04C0C886B9
:1037E000D986EA86FB86C0901802D0901902E09034
:1037F0001A02F0901B02A7019601688579858A85D7
:103800009B850F94530B181624F4C886D986EA8634
:10381000FB86DF91CF91FF90EF90DF90CF900895DE
:103820001F93CF93DF93182FEB01FE018491219614
:1038300081110AC0CEEDD6E0FE0184912196882345
:1038400031F00E946087F8CF0E946087EECFC9ED0B
:10385000D6E0112311F0CFECD6E0FE018491219641
:10386000882319F00E946087F8CF8AE0DF91CF911A
:103870001F910C946087CF93DF938B3D9240A1F012
:10388000C8E5D0E3FE018491219681110AC0C7EEFC
:10389000D2E0FE0184912196882351F00E94608736
:1038A000F8CF0E946087EECF80E0DF91CF9108953E
:1038B00081E0FBCFCF92DF92EF92FF920F931F93A5
:1038C000CF93DF936B017A01EC01C850D94F288167
:1038D0003CE0389F8001399F100D112427FF24C040
:1038E000FB011182108288818F5F88838881980113
:1038F000280F311D87FD3A95C90120910817F6015F
:103900002817190629F024F088818C300CF43CC06B
:1039100080819181049680349C4908F475C0F60139
:1039200080819181049672C088819801280F311D91
:1039300087FD3A95C901209108172817190699F2B1
:1039400094F28881A801480F511D87FD5A95FA010C
:10395000EE0FFF1FE40FF51FE456F94E808186FF3E
:10396000C2CF8881F801E80FF11D87FDFA95CF01DC
:10397000EE0FFF1FE80FF91FE456F94E808160E05B
:103980008F730E9423D9AFCF808191812881A801B4
:10399000420F511D27FD5A959A01FA01EE0FFF1FA4
:1039A000E20FF31FE456F94E21813281820F931FFB
:1039B000F7019183808388819801280F311D87FD4D
:1039C0003A95F901EE0FFF1FE20FF31FE456F94E8F
:1039D000808186FF20C08881080F111D87FD1A9500
:1039E000F801EE0FFF1FE00FF11FE456F94E808142
:1039F00061E08F73DF91CF911F910F91FF90EF9056
:103A0000DF90CF900C9423D980E49CE9F701918357
:103A100080838FEF8883DF91CF911F910F91FF906B
:103A2000EF90DF90CF90089580917C0F882341F034
:103A300040E150E063E370E08DE79FE00D94910872
:103A400008952F923F924F925F926F927F928F9242
:103A50009F92AF92BF92CF92DF92EF92FF920F931D
:103A60001F93CF93DF93CDB7DEB76C970FB6F89463
:103A7000DEBF0FBECDBF8C015B015A834983FC01C1
:103A8000EE5AFF4F2081318142815381298B3A8B3D
:103A90004B8B5C8BCA01B9010F94C8046B017C018C
:103AA000D5012D913D914D915C910F9429050F9475
:103AB000F3090F94760A4B015C01E981FA812081B8
:103AC000318142815381C701B6010F9429050F94BA
:103AD000F3090F94760A89869A86AB86BC86298577
:103AE0003A854B855C85283731054105510540F401
:103AF00028E730E040E050E029873A874B875C8731
:103B00006D837E838F8398874D815E816F817885F9
:103B1000483751056105710540F468E770E080E0C1
:103B200090E06D837E838F839887F801E25AFF4F80
:103B30004080518062807380C301B2010F94CA0437
:103B400069837A838B839C8369857A858B859C8541
:103B50000F94C8046D8B7E8B8F8B988F20E030E0A4
:103B6000A90169817A818B819C810F94C404882387
:103B700009F4E1C1A7019601C701B6010F94290517
:103B80004B015C012D893E894F89588DCA01B901CD
:103B90000F9429059B01AC01C501B4010F942C09B8
:103BA0004B015C0129813A814B815C81CA01B901D9
:103BB0000F942D099B01AC01C501B4010F94090AB2
:103BC0000F94F3090F94760A6D877E878F87988B01
:103BD00066277727CB0164197509860997090F9421
:103BE000CA044B015C016D817E818F8198850F94A1
:103BF000C8042B013C0120E030E0A901C501B4015B
:103C00000F94C404882309F49AC1A3019201C3014B
:103C1000B2010F942905698F7A8F8B8F9C8FA70132
:103C20009601C701B6010F9429059B01AC01698D6E
:103C30007A8D8B8D9C8D0F942C096B017C01A501D5
:103C40009401C501B4010F942D099B01AC01C7017A
:103C5000B6010F94090A0F94A20AD80195968D9087
:103C60009D90AD90BC909897750164012D853E851F
:103C70004F855889C21AD30AE40AF50A0F94760AC6
:103C8000C61AD70AE80AF90AF7FE8EC02D893E89BE
:103C90004F89588DCA01B9010F9429056B017C0128
:103CA00029813A814B815C81CA01B9010F942D09A8
:103CB000698B7A8B8B8B9C8B20E030E0A90169812A
:103CC0007A818B819C810F94C404882309F43BC1C1
:103CD000C501B4010F94C80429893A894B895C89CC
:103CE0000F942905A70196010F942C096D877E87F3
:103CF0008F87988BA3019201C301B2010F9429050C
:103D00009B01AC016D857E858F8598890F942D0967
:103D10002B013C0120E030E040E850E469817A81E9
:103D20008B819C810F9429059B01AC01C301B201D9
:103D30000F94090A0F94F3092B013C0120E030E0B5
:103D4000A9010F94530B18161CF0412C512C320171
:103D5000C301B2010F94760A6D877E878F87988B97
:103D600086169706A806B90620F48D869E86AF862D
:103D7000B88A6D857E858F8598890F94C8042989B6
:103D80003A894B895C890F942905A70196010F9404
:103D90002D090F94980B0F94760A698B7A8B8B8B75
:103DA0009C8BC12CD12C760169897A898B899C895D
:103DB00029853A854B855C85621B730B840B950BBB
:103DC0000F94C80429813A814B815C810F94090AC0
:103DD00020E034E244EF59E40F9429050F94760A69
:103DE0004B015C0169897A898B899C892D813E818F
:103DF0004F815885621B730B840B950B0F94C8047D
:103E000029813A814B815C810F94090A20E034E2D8
:103E100044EF59E40F9429050F94760A2B013C01D5
:103E20003FE683169104A104B10408F090C0F401A8
:103E3000EE0FFF1FEE0FFF1FE45EF84F8591959187
:103E4000A591B4918983292E3A2EBD8B4FE6441655
:103E500051046104710408F082C0F201EE0FFF1FEB
:103E6000EE0FFF1FE45EF84F4591559165917491F7
:103E70009A01CB014D855E856F857889D8019A9628
:103E80004D935D936D937C939D974C0D5D1D6E1DC1
:103E90007F1DF80146A757A760AB71ABEA5AFF4FE9
:103EA00049855A856B857C85408351836283738302
:103EB000D6968D929D92AD92BC92D997F80142AE62
:103EC00053AE64AE75AEFE96498140832182328244
:103ED0005D895383349620833183828393836989F8
:103EE0007A898B899C89D2966D937D938D939C93CF
:103EF000D59778962D813E814F81588520833183D7
:103F0000428353836C960FB6F894DEBF0FBECDBFCD
:103F1000DF91CF911F910F91FF90EF90DF90CF90A5
:103F2000BF90AF909F908F907F906F905F904F90D9
:103F30003F902F90089560E070E0CB0141CE60E0AB
:103F400070E0CB0188CE60E070E0CB01F3CEC5011C
:103F5000B40188D96983272E382E9D8B77CFC30172
:103F6000B20180D99B0186CF8F929F92AF92BF9270
:103F7000CF92DF92EF92FF920F93CF93DF931F9236
:103F8000CDB7DEB76C017B0149018091D6065B019C
:103F9000A40EB51E8823A1F0F60180819181480FFF
:103FA000591F518340830F90DF91CF910F91FF9064
:103FB000EF90DF90CF90BF90AF909F908F9008953B
:103FC000F601808191810F9489088983909173050E
:103FD000992311F0002311F0F7018083BE016F5F78
:103FE0007F4FC4010E94DCD6F60180819181019649
:103FF00091838083FFEFEF1AFF0AEA14FB0401F7B5
:10400000D2CF7F928F929F92AF92BF92CF92DF9248
:10401000EF92FF920F931F93CF93DF931F92CDB731
:10402000DEB7E091D606E11133C059018C017B0166
:104030006B01C40ED51EEC14FD0489F1F8018080DB
:104040009180F70171907F017982C4010F948908F2
:10405000781609F43AC0672DC4010F94B208C40160
:104060000F9489089981891781F10DE610E3F80111
:1040700084910F5F1F4F811121C00DEC12E0F801F8
:1040800084910F5F1F4F8823E1F00E946087F7CF74
:10409000FC0120813181420F531F518340830F90D7
:1040A000DF91CF911F910F91FF90EF90DF90CF9014
:1040B000BF90AF909F908F907F9008950E946087EF
:1040C000D6CF81E08093D606EACFBE016F5F7F4FE7
:1040D000C5010E94DCD6F80180819181019691830F
:1040E0008083A9CF0F930FB70F9300916E000B7FC2
:1040F00000936E0078940F930BB70F930CB70F9249
:104100001F922F933F934F935F936F937F938F9360
:104110009F93AF93BF93EF93FF9311240E94863137
:10412000FF91EF91BF91AF919F918F917F916F918F
:104130005F914F913F912F911F900F900CBF0F9166
:104140000BBF0F910460F89400936E000F910FBFA6
:104150000F911895CF92DF92EF92FF92C0902914A1
:10416000D0902A14E0902B14F0902C146091271416
:104170007091281466507109072E000C880B990B5A
:104180000F94CA04A70196010F94530B18160CF54F
:1041900020E030E040E050E4C701B6010F942D0963
:1041A0000F94760A7093100E60930F0E0E9428DB16
:1041B000605A75418F4F9F4F60930B0E70930C0E9A
:1041C00080930D0E90930E0EFF90EF90DF90CF90A6
:1041D000089510920B0E10920C0E10920D0E10926C
:1041E0000E0EF2CF8F929F92AF92BF92CF92DF923C
:1041F000EF92FF920F931F93CF93DF93B0E4A0E071
:104200006A2F70E0AB014B0F511D55954795A417D0
:1042100011F0B41319C0E2EAF3E165917491072E2D
:10422000000C880B990B0F94CA04DF91CF911F915A
:104230000F91FF90EF90DF90CF90BF90AF909F9045
:104240008F900895B42FDECF9A0121503109220FAB
:10425000331F220F331FF901EC55FD4EE590F4900A
:10426000F901E855FD4EC591D4918E159F0554F383
:10427000A42FC817D9070CF4C3CFF901EA55FD4E96
:1042800005911491F901E655FD4EC590D490BC01FD
:104290006E197F09072E000C880B990B0F94CA0426
:1042A0004B015C01B601601B710B072E000C880BE3
:1042B000990B0F94CA049B01AC01C501B4010F9482
:1042C00029054B015C01BE016E197F09072E000C08
:1042D000880B990B0F94CA049B01AC01C501B40172
:1042E0000F94090A6B017C01B801110F880B990B1F
:1042F0000F94CA049B01AC01C701B6010F942D09AC
:1043000094CF80911D0E90911E0E0E9446DD609309
:104310005F16709360168093611690936216809179
:104320001B0E90911C0E5EDF6093291470932A146B
:1043300080932B1490932C14A895109275060895D1
:10434000AF92BF92CF92DF92EF92FF920F931F93A3
:10435000CF93DF9320E030E048E452E460915F16B1
:104360007091601680916116909162160F94530BB4
:10437000C0E0181644F4E8E3F2E1E491C1E001C0C2
:10438000CC0FEA95EAF7D12CC12CA12CD0E0EE2479
:10439000E394F12CF601EE5CFD4EB490F601E85C7E
:1043A000FD4E0491B7FC23C08A2D90E0002E02C080
:1043B000959587950A94E2F780FD19C0BE01002EFD
:1043C00002C0759567950A94E2F76170162F1195F2
:1043D000612F8B2D0E9423D9612F70E08B2D0E94BD
:1043E00020DAC70101C0880F0A95EAF7A82A8FEFE3
:1043F000C81AD80A86E0C816D10461F6DF91CF91B9
:104400001F910F91FF90EF90DF90CF90BF90AF90F2
:1044100008950F931F9380915306813019F50E94E0
:1044200028DB0091DF0D1091E00D2091E10D30911E
:10443000E20D601B710B820B930B28EE33E040E022
:1044400050E00F94CF086091DB0D7091DC0D8091EE
:10445000DD0D9091DE0D620F731F841F951F1F915C
:104460000F9108956091E30D7091E40D8091E50D39
:104470009091E60DD6CF109253061092DF0D109258
:10448000E00D1092E10D1092E20D1092E30D1092EA
:10449000E40D1092E50D1092E60D1092DB0D1092D6
:1044A000DC0D1092DD0D1092DE0D08958091530603
:1044B000813079F482E0809353060E9428DB609378
:1044C000E30D7093E40D8093E50D9093E60D81E08C
:1044D000089580E008950F930FB70F9300916E0039
:1044E0000F930B7F00936E0000916F000D7F009380
:1044F0006F000F930BB70F930CB70F921F922F9370
:104500003F934F935F936F937F938F939F93AF935B
:10451000BF93EF93FF9311244AD0FF91EF91BF9186
:10452000AF919F918F917F916F915F914F913F914B
:104530002F911F900F900CBF0F910BBF0F91026036
:10454000F89400936F000F9100936E000F910FBFCE
:104550000F9118958091820D80FF1BC089988FEF75
:10456000809332028091820D81FF16C08F9A8FEF67
:10457000809333028091820D82FF11C080910B01E4
:104580008095827080930901439A8FEF8093340263
:104590000895899A81E0E4CF8F9881E0E9CF8091F6
:1045A0000B01827080930901439881E0EFCF2F9235
:1045B0003F924F925F926F927F928F929F92AF92B3
:1045C000BF92CF92DF92EF92FF920F931F93CF9300
:1045D000DF93CDB7DEB767970FB6F894DEBF0FBE97
:1045E000CDBFF8948FEF9FEF909389008093880060
:1045F0002AE02D83312C212C78948091C90D909143
:10460000CA0DA091CB0DB091CC0D892B8A2B8B2B91
:1046100009F018C2809152068823E1F08091CD0DF7
:104620009091CE0D10925206892B09F40BC2109274
:10463000C00D1092CE0D1092CD0D90916616809106
:104640006716981709F4FEC1809167168F5F8F7007
:10465000809367168091CD0D9091CE0D892B09F432
:10466000F1C14091C50D5091C60D6091C70D70917B
:10467000C80D8091C10D9091C20DA091C30DB09154
:10468000C40D0091B70D10E030E020E0841B950BC5
:10469000A60BB70B081719072A073B0710F4D90117
:1046A000C801E82F840F951FA61FB71F8093C50D63
:1046B0009093C60DA093C70DB093C80D20918400B0
:1046C00030918500245E3F4F80919C0D90919D0D0F
:1046D000A0919E0DB0919F0D40918C0D50918D0D2C
:1046E00060918E0D70918F0D840F951FA61FB71FBF
:1046F00080939C0D90939D0DA0939E0DB0939F0D64
:10470000B7FD1CC0889A4091D8135091D91360917D
:10471000DA137091DB1380913202082E000C990B92
:10472000AA0BBB0B840F951FA61FB71F8093D8132E
:104730009093D913A093DA13B093DB138091A00D5B
:104740009091A10DA091A20DB091A30D4091900D5B
:104750005091910D6091920D7091930D840F951F62
:10476000A61FB71F8093A00D9093A10DA093A20D3B
:10477000B093A30DB7FD1CC08E9A4091DC135091ED
:10478000DD136091DE137091DF1380913302082EE8
:10479000000C990BAA0BBB0B840F951FA61FB71F0C
:1047A0008093DC139093DD13A093DE13B093DF139B
:1047B0008091A40D9091A50DA091A60DB091A70D8B
:1047C0004091940D5091950D6091960D7091970DBB
:1047D000840F951FA61FB71F8093A40D9093A50D5E
:1047E000A093A60DB093A70DB7FD3DC080917F0D9E
:1047F000F0913402882309F416C180917D0D82FF67
:1048000002C0F7FD0AC080917C0D811106C0809125
:104810000B01809588708093090180917D0D9091A6
:104820007E0D93FF02C0F7FD05C080917B0D8111C5
:1048300001C0419A4091E0135091E1136091E2135D
:104840007091E3138F2FFF0F990BAA0BBB0B840FF3
:10485000951FA61FB71F8093E0139093E113A093B9
:10486000E213B093E3134091A80D5091A90D60910C
:10487000AA0D7091AB0D8091980D9091990DA0911A
:104880009A0DB0919B0D840F951FA61FB71F8093A3
:10489000A80D9093A90DA093AA0DB093AB0DB7FDF1
:1048A00038C0C090E413D090E513E090E613F09088
:1048B000E71340913502042E000C550B660B770B65
:1048C0004C0D5D1D6E1D7F1D4093E4135093E51349
:1048D0006093E6137093E7134091880D5091890D12
:1048E00060918A0D70918B0D841B950BA60BB70BF5
:1048F0008093A80D9093A90DA093AA0DB093AB0D32
:104900008091B50D9091820D93FF94C0815080935A
:10491000B50D80919C0D90919D0DA0919E0DB09133
:104920009F0DB7FD15C04091880D5091890D609184
:104930008A0D70918B0D841B950BA60BB70B809382
:104940009C0D90939D0DA0939E0DB0939F0D889804
:104950008091A00D9091A10DA091A20DB091A30DF9
:10496000B7FD15C04091880D5091890D60918A0D59
:1049700070918B0D841B950BA60BB70B8093A00D2C
:104980009093A10DA093A20DB093A30D8E9880914A
:10499000A40D9091A50DA091A60DB091A70DB7FD06
:1049A00038C04091880D5091890D60918A0D7091A9
:1049B0008B0D841B950BA60BB70B8093A40D9093C6
:1049C000A50DA093A60DB093A70D80917F0D882310
:1049D00099F180917D0D82FF04C08091340287FDA2
:1049E00009C080917C0D811105C080910B018870F8
:1049F0008093090180917D0D90917E0D93FF04C0FD
:104A00008091340287FD05C080917B0D811101C02A
:104A10004198E150B9F0809184009091850082170F
:104A20009307C8F351CE80910B01809588708093D5
:104A30000901FFCE8F5F6BCF80910B01887080934F
:104A40000901E6CF80913F0290914002A09141027E
:104A5000B0914202892B8A2B8B2B09F08AC080915E
:104A6000B60D882309F475C04091B50D8090C50D31
:104A70009090C60DA090C70DB090C80DC090B10D1C
:104A8000D090B20DE090B30DF090B40DC814D904DD
:104A9000EA04FB04F0F58091800D9091810D209146
:104AA000850D3091860D2817390798F541504093B0
:104AB000B50D01979093810D8093800D40913B023D
:104AC00050913C0260913D0270913E028091B50D83
:104AD00087FD43C0169A80918400909185004C9682
:104AE0002091B50D2223E9F1149A2091B50D27FFED
:104AF00036C02F5F2093B50D14982091B50D222359
:104B000079F3209184003091850028173907C8F384
:104B1000E7CF8C149D04AE04BF0480F48091800D17
:104B20009091810D2091830D3091840D8217930710
:104B300028F44F5F4093B50D0196BCCF8FEF9FEFE8
:104B4000DC0180933B0290933C02A0933D02B09322
:104B50003E024FEF5FEFBA01B9CF1698BCCF21509C
:104B6000C9CF40933F02509340026093410270933B
:104B700042028091C90D9091CA0DA091CB0DB091C8
:104B8000CC0D892B8A2B8B2B09F0C1C7A091CD0DA1
:104B9000B091CE0DBF8BAE8BAB2B11F40C94272EA6
:104BA0004090C50D5090C60D6090C70D7090C80D17
:104BB0008091C10D9091C20DA091C30DB091C40D13
:104BC000481659066A067B0608F474C01092C00D98
:104BD0001092CE0D1092CD0D9091661680916716B1
:104BE000981711F40C94272E809167168F5F8F70A1
:104BF00080936716A0EDCA2EA7E0DA2EE12CF12CE7
:104C00008091CD0D9091CE0D892B09F078C70E942F
:104C1000FD189093CE0D8093CD0D892B09F46FC7AD
:104C20002091CD0D3091CE0D3A832983D9018C91FD
:104C300083FD01C0C9C5F90185899689A789B08D11
:104C40008093D8139093D913A093DA13B093DB1306
:104C5000818D928DA38DB48D8093DC139093DD13A1
:104C6000A093DE13B093DF13858D968DA78DB0A131
:104C70008093E0139093E113A093E213B093E313B6
:104C800081A192A1A3A1B4A18093E4139093E51311
:104C9000A093E613B093E713909166168091671680
:104CA000981709F4B4CF809167168F5F8F70809347
:104CB0006716ADCF8091BC0D9091BD0DA091BE0D3A
:104CC000B091BF0D84159505A605B70508F437C248
:104CD0004091B80D5091B90D6091BA0D7091BB0D16
:104CE000EE89FF8986A997A9A0ADB1AD48175907EC
:104CF0006A077B0708F0F9C1411551056105710587
:104D000009F08FC080904E0690904F06A0905006FC
:104D1000B090510682E192E1A1E0FC01059115916C
:104D200025913491081519052A053B0558F4B694C8
:104D3000A79497948794AA0F0496EEE2F2E1E817FD
:104D4000F90759F7A093B70DF0E28F169104A1046B
:104D5000B10428F4E0E28E2E912CA12CB12C20E29B
:104D6000821A9108A108B108811438E09306A104C1
:104D7000B10408F4C3C1A4E09A9EC00111248E5E60
:104D8000914FFC01329625913491B82DEE27B39FB7
:104D90008001B29F010D1E1F06940E1F1E1F1124BD
:104DA00030E020E0FC01C590D490F12CE12CC01A39
:104DB000D10AE20AF30A4C0D5D1D6E1D7F1D409362
:104DC000B80D5093B90D6093BA0D7093BB0D8091DF
:104DD000B50D9091B60D992309F43BC4882309F4CD
:104DE0000FCF2E893F89285B3F4FD9018D919C9130
:104DF000B0E0A0E040913B0250913C0260913D0246
:104E000070913E0284179507A607B70709F4F8CEFC
:104E100010923F0210924002109241021092420200
:104E2000EFCEF12C0E81942F852E862F1F81B88511
:104E3000A985FA85EB853C852D85E0914A06E99F99
:104E4000A12DFF2730914B06399FA00DF11D109029
:104E50004C06199EF00DE89DA00DF11D389DF00D3A
:104E6000E89FF00D1A2FBF2F1A9FE12D332722271D
:104E70001F9FE00D311D2F1DBA9FE00D311D2F1D0D
:104E8000BF9F300D211D132FB22F1A9F012D3327E5
:104E900022271F9F000D311D2F1DBA9F000D311DB0
:104EA0002F1DBF9F300D211D132FB22FEE27909184
:104EB0004E0680904F068091500600903B0E0F28C2
:104EC00009F483C03091370E319FE1199F098F0893
:104ED0008F092091380E219FE01991098F088F09C1
:104EE0000091390E019F901981088F093B9FE019AD
:104EF00091098F088F092B9F901981088F090B9FAB
:104F0000801881091A9F012D332722271F9F000D2A
:104F1000311D2F1DBA9F000D311D2F1DBF9F300D5C
:104F2000211D132FB22F3091330E319FE10D9F1DA4
:104F30008F1C8F1D2091340E219FE00D911D8F1C21
:104F40008F1D0091350E019F900D811C8F1D3B9F81
:104F5000E00D911D8F1C8F1D2B9F900D811C8F1DAF
:104F60000B9F800C811D1A9F012D332722271F9F25
:104F7000000D311D2F1DBA9F000D311D2F1DBF9F2C
:104F8000300D211D132FB22F30912F0E319FE119BB
:104F90009F098F088F092091300E219FE0199109F8
:104FA0008F088F090091310E019F901981088F0998
:104FB0003B9FE01991098F088F092B9F9019810859
:104FC0008F090B9F8018810982C03091370E319F65
:104FD000E10D9F1D8F1C8F1D2091380E219FE00D2C
:104FE000911D8F1C8F1D0091390E019F900D811C0A
:104FF0008F1D3B9FE00D911D8F1C8F1D2B9F900DD2
:10500000811C8F1D0B9F800C811D1A9F012D332742
:1050100022271F9F000D311D2F1DBA9F000D311D2E
:105020002F1DBF9F300D211D132FB22F3091330E36
:10503000319FE1199F098F088F092091340E219F1C
:10504000E01991098F088F090091350E019F901981
:1050500081088F093B9FE01991098F088F092B9FC9
:10506000901981088F090B9F801881091A9F012DC3
:10507000332722271F9F000D311D2F1DBA9F000DC2
:10508000311D2F1DBF9F300D211D132FB22F3091C9
:105090002F0E319FE10D9F1D8F1C8F1D2091300E13
:1050A000219FE00D911D8F1C8F1D0091310E019FDE
:1050B000900D811C8F1D3B9FE00D911D8F1C8F1D3E
:1050C0002B9F900D811C8F1D0B9F800C811D112427
:1050D0000E831F83B887A987FA87EB873C872D87C4
:1050E000982C892EB12CA82E15CEAE89BF89D296C8
:1050F0008D909D90AD90BC90D5970CCED501C401FC
:10510000B695A795979587958C7F8E5E954FFC01F8
:10511000C590D490FC01329625913491E82DE7702A
:10512000E29FC001E39F900D112433E0969587958F
:105130003A95E1F7C81AD90AF12CE12C3CCE20911E
:10514000B10D3091B20D4091B30D5091B40D298342
:105150003A834B835C83241535054605570508F0D3
:105160007CC28090AC0D9090AD0DA090AE0DB09033
:10517000AF0D8091B00DEE89FF898111C2C0EE5B49
:10518000FF4FE080F18002811381EE89FF89E65AAA
:10519000FF4F2081318142815381AE89BF89D296F0
:1051A0006D917D918D919C91D5970E94AB18B1E046
:1051B000B093B00DEE89FF8982A993A9A4A9B5A9DE
:1051C00022E132E111E0F901459155916591749127
:1051D000481759076A077B0760F4B695A795979516
:1051E0008795110F2C5F3F4F4EE252E14217530754
:1051F00051F71093B70D80329105A105B10520F448
:1052000080E290E0A0E0B0E08097A109B1098115AB
:1052100058E09507A105B10508F4F8C174E0979F1F
:10522000900111242E5E314FF9013296459154912F
:10523000EE27859FB001849F610D7E1F06946E1F2F
:105240007E1F1124CB01B0E0A0E0F901C590D490FD
:10525000F12CE12CC81AD90AEA0AFB0A8C0C9D1C15
:10526000AE1CBF1C8092AC0D9092AD0DA092AE0D05
:10527000B092AF0D8091B60D882309F4E8C1898101
:105280009A81AB81BC81810F911DA11DB11D841537
:105290009505A605B705D8F48091B50D882309F4C6
:1052A000AFCCEE89FF89E85BFF4F80819181B0E050
:1052B000A0E040913B0250913C0260913D02709110
:1052C0003E0284179507A607B70709F499CC1092F8
:1052D0003F021092400210924102109242028E89C7
:1052E0009F89885B9F4FDC018D919C91B0E0A0E08D
:1052F00080933B0290933C02A0933D02B0933E0208
:105300007FCC82AD93ADA4ADB5AD88169906AA0643
:10531000BB0608F072C181149104A104B10449F4E0
:1053200080914E0690914F06A0915006B091510683
:1053300047CFB0E0AE85282D892D1A2DFF85E8894D
:1053400079896A895B894C893D8950914A06529FC7
:10535000712D662740914B06429F700D611D109084
:105360004C06129E600D589F700D611D489F600D88
:10537000519F600DF72FE62FF79F512D44273327BC
:10538000F69F500D411D3B1FE79F500D411D3B1FD8
:10539000E69F400D311DF42FE32FF79FA12D4427E9
:1053A0003327F69FA00D411D3B1FE79FA00D411D18
:1053B0003B1FE69F400D311DF42FE32F5527209111
:1053C0004E0680914F061091500600903B0E0B2A1E
:1053D00009F483C04091370E4F9F51192B0B8B0B53
:1053E0001B0B3091380E3F9F501921098B0B1B0B63
:1053F000A091390EAF9F201981091B0B4E9F5019A8
:1054000021098B0B1B0B3E9F201981091B0BAE9FA3
:1054100080191109F79FA12D44273327F69FA00D6E
:10542000411D3B1FE79FA00D411D3B1FE69F400D07
:10543000311DF42FE32F4091330E4F9F510D2B1F41
:105440008B1F1B1F3091340E3F9F500D211D8B1F52
:105450001B1FA091350EAF9F200D811D1B1F4E9F5E
:10546000500D211D8B1F1B1F3E9F200D811D1B1FDB
:10547000AE9F800D111DF79FA12D44273327F69F66
:10548000A00D411D3B1FE79FA00D411D3B1FE69F47
:10549000400D311DF42FE32F40912F0E4F9F5119D6
:1054A0002B0B8B0B1B0B3091300E3F9F501921099A
:1054B0008B0B1B0BA091310EAF9F201981091B0B89
:1054C0004E9F501921098B0B1B0B3E9F2019810900
:1054D0001B0BAE9F8019110982C04091370E4F9F60
:1054E000510D2B1F8B1F1B1F3091380E3F9F500DEE
:1054F000211D8B1F1B1FA091390EAF9F200D811DF9
:105500001B1F4E9F500D211D8B1F1B1F3E9F200DEB
:10551000811D1B1FAE9F800D111DF79FA12D4427DC
:105520003327F69FA00D411D3B1FE79FA00D411D96
:105530003B1FE69F400D311DF42FE32F4091330EAA
:105540004F9F51192B0B8B0B1B0B3091340E3F9F30
:10555000501921098B0B1B0BA091350EAF9F201901
:1055600081091B0B4E9F501921098B0B1B0B3E9F72
:10557000201981091B0BAE9F80191109F79FA12DDE
:1055800044273327F69FA00D411D3B1FE79FA00D29
:10559000411D3B1FE69F400D311DF42FE32F40912D
:1055A0002F0E4F9F510D2B1F8B1F1B1F3091300E45
:1055B0003F9F500D211D8B1F1B1FA091310EAF9FD0
:1055C000200D811D1B1F4E9F500D211D8B1F1B1F6A
:1055D0003E9F200D811D1B1FAE9F800D111D1124AC
:1055E000AE87FF87E88B798B6A8B5B8B4C8B3D8B0F
:1055F000982F822FB0E0A12FE3CDEE89FF89E65AE4
:10560000FF4F80819181A281B381DACDAC01BD01D0
:1056100076956795579547954C7F4E5E554FFA01A5
:1056200025913491FA013296659174918770869F25
:10563000A001879F500D1124A3E056954795AA9588
:10564000E1F7241B350B6901F12CE12C07CE809189
:10565000B50D882309F4D4CADBCB8091B50D88231E
:10566000E9F0EE89FF89E85BFF4F80819181B0E02E
:10567000A0E040913B0250913C0260913D0270914C
:105680003E0284179507A607B70741F010923F0224
:105690001092400210924102109242028091370211
:1056A00090913802A0913902B0913A02B7FF61C0DF
:1056B000EE89FF89EE5AFF4FC080D180E280F380EF
:1056C00082E192E121E0FC0145915591659174914F
:1056D0004C155D056E057F0558F4F694E794D79454
:1056E000C794220F04964EE252E14817590759F722
:1056F0002093B70D50E2C516D104E104F10428F45B
:1057000070E2C72ED12CE12CF12C70E2C71AD1081F
:10571000E108F108C11488E0D806E104F10408F4B6
:1057200031C0A4E0DA9EC00111248E5E914FFC01CD
:10573000329625913491BC2D6627B39FA001B29F6C
:10574000410D561F0694461F561F112470E060E05D
:10575000FC0185919491B0E0A0E0841B950BA60B11
:10576000B70B8093370290933802A0933902B0931D
:105770003A02C0903702D0903802E0903902F0909F
:105780003A023ECAD701C601B695A7959795879567
:105790008C7F8E5E954FFC0125913491FC013296F1
:1057A00045915491EC2DE770E49FC001E59F900D69
:1057B000112463E0969587956A95E1F7281B390BCC
:1057C000C901B0E0A0E0CDCFA981BA8155968D90F6
:1057D0009D90AD90BC90589781E081149104A104F4
:1057E000B10409F480E0E981FA81C18CD28CE38CA8
:1057F000F48CC114D104E104F10409F08260A981A0
:10580000BA815D964D915D916D917C919097411516
:1058100051056105710509F084608093C00D1092F7
:10582000AC0D1092AD0D1092AE0D1092AF0D109206
:10583000B80D1092B90D1092BA0D1092BB0DE981FE
:10584000FA8185A196A1A7A1B0A58093C10D9093DF
:10585000C20DA093C30DB093C40D4424552432014E
:10586000481A590A6A0A7B0A4092A80D5092A90D5B
:105870006092AA0D7092AB0D4092A40D5092A50DAE
:105880006092A60D7092A70D4092A00D5092A10DAE
:105890006092A20D7092A30D40929C0D50929D0DAE
:1058A00060929E0D70929F0D880C991CAA1CBB1CC7
:1058B00080928C0D90928D0DA0928E0DB0928F0DD6
:1058C000CC0CDD1CEE1CFF1CC092900DD092910DF3
:1058D000E092920DF092930D440F551F661F771FB3
:1058E0004093940D5093950D6093960D7093970D82
:1058F00041A152A163A174A1440F551F661F771FD8
:105900004093980D5093990D60939A0D70939B0D51
:10591000880F991FAA1FBB1F8093880D9093890D34
:10592000A0938A0DB0938B0D1092C50D1092C60DE9
:105930001092C70D1092C80D82A593A5A4A5B5A578
:105940008093BC0D9093BD0DA093BE0DB093BF0D81
:1059500086A597A5A0A9B1A98093B10D9093B20D8A
:10596000A093B30DB093B40D81A58093870DE95B2F
:10597000FF4F90819093B60D992309F43AC1E981C4
:10598000FA81E45BFF4F208131813093860D2093B3
:10599000850DE981FA81E65BFF4F208131813093EB
:1059A000840D2093830D10923F02109240021092BA
:1059B000410210924202E981FA81E85BFF4F408187
:1059C000518170E060E040933B0250933C02609351
:1059D0003D0270933E02E981FA81EA5BFF4F9081BC
:1059E0002091820D921309C040913602282F082E73
:1059F000000C330B4217130631F09093820D809305
:105A000036020E94AA220E94D61A8FEF9FEFDC0175
:105A10008093370290933802A0933902B0933A02F0
:105A2000E981FA81FE96E080F18002811381A981EB
:105A3000BA81D2962D913D914D915C91D597AA5AFC
:105A4000BF4FBA83A9836D917D918D919C910E94E6
:105A5000AB181092B00DE981FA81408151816281C9
:105A6000738182E192E1A1E0FC01059115912591FC
:105A70003491041715072607370758F4769567956C
:105A800057954795AA0F04962EE232E12817390759
:105A900059F7A093B70D403251056105710520F407
:105AA00040E250E060E070E0405251096109710944
:105AB000411538E053076105710508F4A6C0A4E05C
:105AC0005A9FC00111248E5E914FFC0132962591A0
:105AD0003491AA27439FF001429FE10DFA1F0694DB
